{
    "_format": "hh-sol-artifact-1",
    "contractName": "MintNft",
    "sourceName": "contracts/MintNft.sol",
    "abi": [
        {
            "inputs": [],
            "stateMutability": "nonpayable",
            "type": "constructor"
        },
        {
            "anonymous": false,
            "inputs": [
                {
                    "indexed": true,
                    "internalType": "address",
                    "name": "owner",
                    "type": "address"
                },
                {
                    "indexed": true,
                    "internalType": "address",
                    "name": "approved",
                    "type": "address"
                },
                {
                    "indexed": true,
                    "internalType": "uint256",
                    "name": "tokenId",
                    "type": "uint256"
                }
            ],
            "name": "Approval",
            "type": "event"
        },
        {
            "anonymous": false,
            "inputs": [
                {
                    "indexed": true,
                    "internalType": "address",
                    "name": "owner",
                    "type": "address"
                },
                {
                    "indexed": true,
                    "internalType": "address",
                    "name": "operator",
                    "type": "address"
                },
                {
                    "indexed": false,
                    "internalType": "bool",
                    "name": "approved",
                    "type": "bool"
                }
            ],
            "name": "ApprovalForAll",
            "type": "event"
        },
        {
            "anonymous": false,
            "inputs": [
                {
                    "indexed": true,
                    "internalType": "address",
                    "name": "previousOwner",
                    "type": "address"
                },
                {
                    "indexed": true,
                    "internalType": "address",
                    "name": "newOwner",
                    "type": "address"
                }
            ],
            "name": "OwnershipTransferred",
            "type": "event"
        },
        {
            "anonymous": false,
            "inputs": [
                {
                    "indexed": true,
                    "internalType": "address",
                    "name": "from",
                    "type": "address"
                },
                {
                    "indexed": true,
                    "internalType": "address",
                    "name": "to",
                    "type": "address"
                },
                {
                    "indexed": true,
                    "internalType": "uint256",
                    "name": "tokenId",
                    "type": "uint256"
                }
            ],
            "name": "Transfer",
            "type": "event"
        },
        {
            "inputs": [
                {
                    "internalType": "address",
                    "name": "to",
                    "type": "address"
                },
                {
                    "internalType": "uint256",
                    "name": "tokenId",
                    "type": "uint256"
                }
            ],
            "name": "approve",
            "outputs": [],
            "stateMutability": "nonpayable",
            "type": "function"
        },
        {
            "inputs": [
                {
                    "internalType": "address",
                    "name": "owner",
                    "type": "address"
                }
            ],
            "name": "balanceOf",
            "outputs": [
                {
                    "internalType": "uint256",
                    "name": "",
                    "type": "uint256"
                }
            ],
            "stateMutability": "view",
            "type": "function"
        },
        {
            "inputs": [
                {
                    "internalType": "address",
                    "name": "to",
                    "type": "address"
                },
                {
                    "internalType": "string",
                    "name": "tokenURI",
                    "type": "string"
                }
            ],
            "name": "create",
            "outputs": [
                {
                    "internalType": "uint256",
                    "name": "",
                    "type": "uint256"
                }
            ],
            "stateMutability": "nonpayable",
            "type": "function"
        },
        {
            "inputs": [
                {
                    "internalType": "uint256",
                    "name": "tokenId",
                    "type": "uint256"
                }
            ],
            "name": "getApproved",
            "outputs": [
                {
                    "internalType": "address",
                    "name": "",
                    "type": "address"
                }
            ],
            "stateMutability": "view",
            "type": "function"
        },
        {
            "inputs": [
                {
                    "internalType": "address",
                    "name": "owner",
                    "type": "address"
                },
                {
                    "internalType": "address",
                    "name": "operator",
                    "type": "address"
                }
            ],
            "name": "isApprovedForAll",
            "outputs": [
                {
                    "internalType": "bool",
                    "name": "",
                    "type": "bool"
                }
            ],
            "stateMutability": "view",
            "type": "function"
        },
        {
            "inputs": [],
            "name": "name",
            "outputs": [
                {
                    "internalType": "string",
                    "name": "",
                    "type": "string"
                }
            ],
            "stateMutability": "view",
            "type": "function"
        },
        {
            "inputs": [],
            "name": "owner",
            "outputs": [
                {
                    "internalType": "address",
                    "name": "",
                    "type": "address"
                }
            ],
            "stateMutability": "view",
            "type": "function"
        },
        {
            "inputs": [
                {
                    "internalType": "uint256",
                    "name": "tokenId",
                    "type": "uint256"
                }
            ],
            "name": "ownerOf",
            "outputs": [
                {
                    "internalType": "address",
                    "name": "",
                    "type": "address"
                }
            ],
            "stateMutability": "view",
            "type": "function"
        },
        {
            "inputs": [],
            "name": "renounceOwnership",
            "outputs": [],
            "stateMutability": "nonpayable",
            "type": "function"
        },
        {
            "inputs": [
                {
                    "internalType": "address",
                    "name": "from",
                    "type": "address"
                },
                {
                    "internalType": "address",
                    "name": "to",
                    "type": "address"
                },
                {
                    "internalType": "uint256",
                    "name": "tokenId",
                    "type": "uint256"
                }
            ],
            "name": "safeTransferFrom",
            "outputs": [],
            "stateMutability": "nonpayable",
            "type": "function"
        },
        {
            "inputs": [
                {
                    "internalType": "address",
                    "name": "from",
                    "type": "address"
                },
                {
                    "internalType": "address",
                    "name": "to",
                    "type": "address"
                },
                {
                    "internalType": "uint256",
                    "name": "tokenId",
                    "type": "uint256"
                },
                {
                    "internalType": "bytes",
                    "name": "_data",
                    "type": "bytes"
                }
            ],
            "name": "safeTransferFrom",
            "outputs": [],
            "stateMutability": "nonpayable",
            "type": "function"
        },
        {
            "inputs": [
                {
                    "internalType": "address",
                    "name": "operator",
                    "type": "address"
                },
                {
                    "internalType": "bool",
                    "name": "approved",
                    "type": "bool"
                }
            ],
            "name": "setApprovalForAll",
            "outputs": [],
            "stateMutability": "nonpayable",
            "type": "function"
        },
        {
            "inputs": [
                {
                    "internalType": "bytes4",
                    "name": "interfaceId",
                    "type": "bytes4"
                }
            ],
            "name": "supportsInterface",
            "outputs": [
                {
                    "internalType": "bool",
                    "name": "",
                    "type": "bool"
                }
            ],
            "stateMutability": "view",
            "type": "function"
        },
        {
            "inputs": [],
            "name": "symbol",
            "outputs": [
                {
                    "internalType": "string",
                    "name": "",
                    "type": "string"
                }
            ],
            "stateMutability": "view",
            "type": "function"
        },
        {
            "inputs": [
                {
                    "internalType": "uint256",
                    "name": "tokenId",
                    "type": "uint256"
                }
            ],
            "name": "tokenURI",
            "outputs": [
                {
                    "internalType": "string",
                    "name": "",
                    "type": "string"
                }
            ],
            "stateMutability": "view",
            "type": "function"
        },
        {
            "inputs": [
                {
                    "internalType": "address",
                    "name": "from",
                    "type": "address"
                },
                {
                    "internalType": "address",
                    "name": "to",
                    "type": "address"
                },
                {
                    "internalType": "uint256",
                    "name": "tokenId",
                    "type": "uint256"
                }
            ],
            "name": "transferFrom",
            "outputs": [],
            "stateMutability": "nonpayable",
            "type": "function"
        },
        {
            "inputs": [
                {
                    "internalType": "address",
                    "name": "newOwner",
                    "type": "address"
                }
            ],
            "name": "transferOwnership",
            "outputs": [],
            "stateMutability": "nonpayable",
            "type": "function"
        }
    ],
    "bytecode": "0x60806040523480156200001157600080fd5b506040518060400160405280600781526020017f426f6e44656669000000000000000000000000000000000000000000000000008152506040518060400160405280600381526020017f4244460000000000000000000000000000000000000000000000000000000000815250816000908051906020019062000096929190620001a6565b508060019080519060200190620000af929190620001a6565b505050620000d2620000c6620000d860201b60201c565b620000e060201b60201c565b620002bb565b600033905090565b6000600760009054906101000a900473ffffffffffffffffffffffffffffffffffffffff16905081600760006101000a81548173ffffffffffffffffffffffffffffffffffffffff021916908373ffffffffffffffffffffffffffffffffffffffff1602179055508173ffffffffffffffffffffffffffffffffffffffff168173ffffffffffffffffffffffffffffffffffffffff167f8be0079c531659141344cd1fd0a4f28419497f9722a3daafe3b4186f6b6457e060405160405180910390a35050565b828054620001b49062000256565b90600052602060002090601f016020900481019282620001d8576000855562000224565b82601f10620001f357805160ff191683800117855562000224565b8280016001018555821562000224579182015b828111156200022357825182559160200191906001019062000206565b5b50905062000233919062000237565b5090565b5b808211156200025257600081600090555060010162000238565b5090565b600060028204905060018216806200026f57607f821691505b602082108114156200028657620002856200028c565b5b50919050565b7f4e487b7100000000000000000000000000000000000000000000000000000000600052602260045260246000fd5b612ebb80620002cb6000396000f3fe608060405234801561001057600080fd5b506004361061010b5760003560e01c8063715018a6116100a2578063a22cb46511610071578063a22cb465146102b8578063b88d4fde146102d4578063c87b56dd146102f0578063e985e9c514610320578063f2fde38b146103505761010b565b8063715018a6146102425780638da5cb5b1461024c57806395d89b411461026a578063a15ab08d146102885761010b565b806323b872dd116100de57806323b872dd146101aa57806342842e0e146101c65780636352211e146101e257806370a08231146102125761010b565b806301ffc9a71461011057806306fdde0314610140578063081812fc1461015e578063095ea7b31461018e575b600080fd5b61012a60048036038101906101259190611f69565b61036c565b60405161013791906127d3565b60405180910390f35b61014861044e565b60405161015591906127ee565b60405180910390f35b61017860048036038101906101739190611fbb565b6104e0565b604051610185919061276c565b60405180910390f35b6101a860048036038101906101a39190611f2d565b610565565b005b6101c460048036038101906101bf9190611dd3565b61067d565b005b6101e060048036038101906101db9190611dd3565b6106dd565b005b6101fc60048036038101906101f79190611fbb565b6106fd565b604051610209919061276c565b60405180910390f35b61022c60048036038101906102279190611d6e565b6107af565b6040516102399190612a50565b60405180910390f35b61024a610867565b005b6102546108ef565b604051610261919061276c565b60405180910390f35b610272610919565b60405161027f91906127ee565b60405180910390f35b6102a2600480360381019061029d9190611ed9565b6109ab565b6040516102af9190612a50565b60405180910390f35b6102d260048036038101906102cd9190611e9d565b6109e3565b005b6102ee60048036038101906102e99190611e22565b6109f9565b005b61030a60048036038101906103059190611fbb565b610a5b565b60405161031791906127ee565b60405180910390f35b61033a60048036038101906103359190611d97565b610bad565b60405161034791906127d3565b60405180910390f35b61036a60048036038101906103659190611d6e565b610c41565b005b60007f80ac58cd000000000000000000000000000000000000000000000000000000007bffffffffffffffffffffffffffffffffffffffffffffffffffffffff1916827bffffffffffffffffffffffffffffffffffffffffffffffffffffffff1916148061043757507f5b5e139f000000000000000000000000000000000000000000000000000000007bffffffffffffffffffffffffffffffffffffffffffffffffffffffff1916827bffffffffffffffffffffffffffffffffffffffffffffffffffffffff1916145b80610447575061044682610d39565b5b9050919050565b60606000805461045d90612cb0565b80601f016020809104026020016040519081016040528092919081815260200182805461048990612cb0565b80156104d65780601f106104ab576101008083540402835291602001916104d6565b820191906000526020600020905b8154815290600101906020018083116104b957829003601f168201915b5050505050905090565b60006104eb82610da3565b61052a576040517f08c379a000000000000000000000000000000000000000000000000000000000815260040161052190612990565b60405180910390fd5b6004600083815260200190815260200160002060009054906101000a900473ffffffffffffffffffffffffffffffffffffffff169050919050565b6000610570826106fd565b90508073ffffffffffffffffffffffffffffffffffffffff168373ffffffffffffffffffffffffffffffffffffffff1614156105e1576040517f08c379a00000000000000000000000000000000000000000000000000000000081526004016105d890612a10565b60405180910390fd5b8073ffffffffffffffffffffffffffffffffffffffff16610600610e0f565b73ffffffffffffffffffffffffffffffffffffffff16148061062f575061062e81610629610e0f565b610bad565b5b61066e576040517f08c379a0000000000000000000000000000000000000000000000000000000008152600401610665906128d0565b60405180910390fd5b6106788383610e17565b505050565b61068e610688610e0f565b82610ed0565b6106cd576040517f08c379a00000000000000000000000000000000000000000000000000000000081526004016106c490612a30565b60405180910390fd5b6106d8838383610fae565b505050565b6106f8838383604051806020016040528060008152506109f9565b505050565b6000806002600084815260200190815260200160002060009054906101000a900473ffffffffffffffffffffffffffffffffffffffff169050600073ffffffffffffffffffffffffffffffffffffffff168173ffffffffffffffffffffffffffffffffffffffff1614156107a6576040517f08c379a000000000000000000000000000000000000000000000000000000000815260040161079d90612910565b60405180910390fd5b80915050919050565b60008073ffffffffffffffffffffffffffffffffffffffff168273ffffffffffffffffffffffffffffffffffffffff161415610820576040517f08c379a0000000000000000000000000000000000000000000000000000000008152600401610817906128f0565b60405180910390fd5b600360008373ffffffffffffffffffffffffffffffffffffffff1673ffffffffffffffffffffffffffffffffffffffff168152602001908152602001600020549050919050565b61086f610e0f565b73ffffffffffffffffffffffffffffffffffffffff1661088d6108ef565b73ffffffffffffffffffffffffffffffffffffffff16146108e3576040517f08c379a00000000000000000000000000000000000000000000000000000000081526004016108da906129b0565b60405180910390fd5b6108ed600061120a565b565b6000600760009054906101000a900473ffffffffffffffffffffffffffffffffffffffff16905090565b60606001805461092890612cb0565b80601f016020809104026020016040519081016040528092919081815260200182805461095490612cb0565b80156109a15780601f10610976576101008083540402835291602001916109a1565b820191906000526020600020905b81548152906001019060200180831161098457829003601f168201915b5050505050905090565b60006109b760086112d0565b60006109c360086112e6565b90506109cf84826112f4565b6109d98184611312565b8091505092915050565b6109f56109ee610e0f565b8383611386565b5050565b610a0a610a04610e0f565b83610ed0565b610a49576040517f08c379a0000000000000000000000000000000000000000000000000000000008152600401610a4090612a30565b60405180910390fd5b610a55848484846114f3565b50505050565b6060610a6682610da3565b610aa5576040517f08c379a0000000000000000000000000000000000000000000000000000000008152600401610a9c90612970565b60405180910390fd5b6000600660008481526020019081526020016000208054610ac590612cb0565b80601f0160208091040260200160405190810160405280929190818152602001828054610af190612cb0565b8015610b3e5780601f10610b1357610100808354040283529160200191610b3e565b820191906000526020600020905b815481529060010190602001808311610b2157829003601f168201915b505050505090506000610b4f61154f565b9050600081511415610b65578192505050610ba8565b600082511115610b9a578082604051602001610b82929190612748565b60405160208183030381529060405292505050610ba8565b610ba384611566565b925050505b919050565b6000600560008473ffffffffffffffffffffffffffffffffffffffff1673ffffffffffffffffffffffffffffffffffffffff16815260200190815260200160002060008373ffffffffffffffffffffffffffffffffffffffff1673ffffffffffffffffffffffffffffffffffffffff16815260200190815260200160002060009054906101000a900460ff16905092915050565b610c49610e0f565b73ffffffffffffffffffffffffffffffffffffffff16610c676108ef565b73ffffffffffffffffffffffffffffffffffffffff1614610cbd576040517f08c379a0000000000000000000000000000000000000000000000000000000008152600401610cb4906129b0565b60405180910390fd5b600073ffffffffffffffffffffffffffffffffffffffff168173ffffffffffffffffffffffffffffffffffffffff161415610d2d576040517f08c379a0000000000000000000000000000000000000000000000000000000008152600401610d2490612830565b60405180910390fd5b610d368161120a565b50565b60007f01ffc9a7000000000000000000000000000000000000000000000000000000007bffffffffffffffffffffffffffffffffffffffffffffffffffffffff1916827bffffffffffffffffffffffffffffffffffffffffffffffffffffffff1916149050919050565b60008073ffffffffffffffffffffffffffffffffffffffff166002600084815260200190815260200160002060009054906101000a900473ffffffffffffffffffffffffffffffffffffffff1673ffffffffffffffffffffffffffffffffffffffff1614159050919050565b600033905090565b816004600083815260200190815260200160002060006101000a81548173ffffffffffffffffffffffffffffffffffffffff021916908373ffffffffffffffffffffffffffffffffffffffff160217905550808273ffffffffffffffffffffffffffffffffffffffff16610e8a836106fd565b73ffffffffffffffffffffffffffffffffffffffff167f8c5be1e5ebec7d5bd14f71427d1e84f3dd0314c0f7b2291e5b200ac8c7c3b92560405160405180910390a45050565b6000610edb82610da3565b610f1a576040517f08c379a0000000000000000000000000000000000000000000000000000000008152600401610f11906128b0565b60405180910390fd5b6000610f25836106fd565b90508073ffffffffffffffffffffffffffffffffffffffff168473ffffffffffffffffffffffffffffffffffffffff161480610f9457508373ffffffffffffffffffffffffffffffffffffffff16610f7c846104e0565b73ffffffffffffffffffffffffffffffffffffffff16145b80610fa55750610fa48185610bad565b5b91505092915050565b8273ffffffffffffffffffffffffffffffffffffffff16610fce826106fd565b73ffffffffffffffffffffffffffffffffffffffff1614611024576040517f08c379a000000000000000000000000000000000000000000000000000000000815260040161101b906129d0565b60405180910390fd5b600073ffffffffffffffffffffffffffffffffffffffff168273ffffffffffffffffffffffffffffffffffffffff161415611094576040517f08c379a000000000000000000000000000000000000000000000000000000000815260040161108b90612870565b60405180910390fd5b61109f83838361160d565b6110aa600082610e17565b6001600360008573ffffffffffffffffffffffffffffffffffffffff1673ffffffffffffffffffffffffffffffffffffffff16815260200190815260200160002060008282546110fa9190612bc6565b925050819055506001600360008473ffffffffffffffffffffffffffffffffffffffff1673ffffffffffffffffffffffffffffffffffffffff16815260200190815260200160002060008282546111519190612b3f565b92505081905550816002600083815260200190815260200160002060006101000a81548173ffffffffffffffffffffffffffffffffffffffff021916908373ffffffffffffffffffffffffffffffffffffffff160217905550808273ffffffffffffffffffffffffffffffffffffffff168473ffffffffffffffffffffffffffffffffffffffff167fddf252ad1be2c89b69c2b068fc378daa952ba7f163c4a11628f55a4df523b3ef60405160405180910390a4505050565b6000600760009054906101000a900473ffffffffffffffffffffffffffffffffffffffff16905081600760006101000a81548173ffffffffffffffffffffffffffffffffffffffff021916908373ffffffffffffffffffffffffffffffffffffffff1602179055508173ffffffffffffffffffffffffffffffffffffffff168173ffffffffffffffffffffffffffffffffffffffff167f8be0079c531659141344cd1fd0a4f28419497f9722a3daafe3b4186f6b6457e060405160405180910390a35050565b6001816000016000828254019250508190555050565b600081600001549050919050565b61130e828260405180602001604052806000815250611612565b5050565b61131b82610da3565b61135a576040517f08c379a000000000000000000000000000000000000000000000000000000000815260040161135190612930565b60405180910390fd5b80600660008481526020019081526020016000209080519060200190611381929190611b92565b505050565b8173ffffffffffffffffffffffffffffffffffffffff168373ffffffffffffffffffffffffffffffffffffffff1614156113f5576040517f08c379a00000000000000000000000000000000000000000000000000000000081526004016113ec90612890565b60405180910390fd5b80600560008573ffffffffffffffffffffffffffffffffffffffff1673ffffffffffffffffffffffffffffffffffffffff16815260200190815260200160002060008473ffffffffffffffffffffffffffffffffffffffff1673ffffffffffffffffffffffffffffffffffffffff16815260200190815260200160002060006101000a81548160ff0219169083151502179055508173ffffffffffffffffffffffffffffffffffffffff168373ffffffffffffffffffffffffffffffffffffffff167f17307eab39ab6107e8899845ad3d59bd9653f200f220920489ca2b5937696c31836040516114e691906127d3565b60405180910390a3505050565b6114fe848484610fae565b61150a8484848461166d565b611549576040517f08c379a000000000000000000000000000000000000000000000000000000000815260040161154090612810565b60405180910390fd5b50505050565b606060405180602001604052806000815250905090565b606061157182610da3565b6115b0576040517f08c379a00000000000000000000000000000000000000000000000000000000081526004016115a7906129f0565b60405180910390fd5b60006115ba61154f565b905060008151116115da5760405180602001604052806000815250611605565b806115e484611804565b6040516020016115f5929190612748565b6040516020818303038152906040525b915050919050565b505050565b61161c83836119b1565b611629600084848461166d565b611668576040517f08c379a000000000000000000000000000000000000000000000000000000000815260040161165f90612810565b60405180910390fd5b505050565b600061168e8473ffffffffffffffffffffffffffffffffffffffff16611b7f565b156117f7578373ffffffffffffffffffffffffffffffffffffffff1663150b7a026116b7610e0f565b8786866040518563ffffffff1660e01b81526004016116d99493929190612787565b602060405180830381600087803b1580156116f357600080fd5b505af192505050801561172457506040513d601f19601f820116820180604052508101906117219190611f92565b60015b6117a7573d8060008114611754576040519150601f19603f3d011682016040523d82523d6000602084013e611759565b606091505b5060008151141561179f576040517f08c379a000000000000000000000000000000000000000000000000000000000815260040161179690612810565b60405180910390fd5b805181602001fd5b63150b7a0260e01b7bffffffffffffffffffffffffffffffffffffffffffffffffffffffff1916817bffffffffffffffffffffffffffffffffffffffffffffffffffffffff1916149150506117fc565b600190505b949350505050565b6060600082141561184c576040518060400160405280600181526020017f300000000000000000000000000000000000000000000000000000000000000081525090506119ac565b600082905060005b6000821461187e57808061186790612ce2565b915050600a826118779190612b95565b9150611854565b60008167ffffffffffffffff8111156118c0577f4e487b7100000000000000000000000000000000000000000000000000000000600052604160045260246000fd5b6040519080825280601f01601f1916602001820160405280156118f25781602001600182028036833780820191505090505b5090505b600085146119a55760018261190b9190612bc6565b9150600a8561191a9190612d2b565b60306119269190612b3f565b60f81b818381518110611962577f4e487b7100000000000000000000000000000000000000000000000000000000600052603260045260246000fd5b60200101907effffffffffffffffffffffffffffffffffffffffffffffffffffffffffffff1916908160001a905350600a8561199e9190612b95565b94506118f6565b8093505050505b919050565b600073ffffffffffffffffffffffffffffffffffffffff168273ffffffffffffffffffffffffffffffffffffffff161415611a21576040517f08c379a0000000000000000000000000000000000000000000000000000000008152600401611a1890612950565b60405180910390fd5b611a2a81610da3565b15611a6a576040517f08c379a0000000000000000000000000000000000000000000000000000000008152600401611a6190612850565b60405180910390fd5b611a766000838361160d565b6001600360008473ffffffffffffffffffffffffffffffffffffffff1673ffffffffffffffffffffffffffffffffffffffff1681526020019081526020016000206000828254611ac69190612b3f565b92505081905550816002600083815260200190815260200160002060006101000a81548173ffffffffffffffffffffffffffffffffffffffff021916908373ffffffffffffffffffffffffffffffffffffffff160217905550808273ffffffffffffffffffffffffffffffffffffffff16600073ffffffffffffffffffffffffffffffffffffffff167fddf252ad1be2c89b69c2b068fc378daa952ba7f163c4a11628f55a4df523b3ef60405160405180910390a45050565b600080823b905060008111915050919050565b828054611b9e90612cb0565b90600052602060002090601f016020900481019282611bc05760008555611c07565b82601f10611bd957805160ff1916838001178555611c07565b82800160010185558215611c07579182015b82811115611c06578251825591602001919060010190611beb565b5b509050611c149190611c18565b5090565b5b80821115611c31576000816000905550600101611c19565b5090565b6000611c48611c4384612a9c565b612a6b565b905082815260208101848484011115611c6057600080fd5b611c6b848285612c6e565b509392505050565b6000611c86611c8184612acc565b612a6b565b905082815260208101848484011115611c9e57600080fd5b611ca9848285612c6e565b509392505050565b600081359050611cc081612e29565b92915050565b600081359050611cd581612e40565b92915050565b600081359050611cea81612e57565b92915050565b600081519050611cff81612e57565b92915050565b600082601f830112611d1657600080fd5b8135611d26848260208601611c35565b91505092915050565b600082601f830112611d4057600080fd5b8135611d50848260208601611c73565b91505092915050565b600081359050611d6881612e6e565b92915050565b600060208284031215611d8057600080fd5b6000611d8e84828501611cb1565b91505092915050565b60008060408385031215611daa57600080fd5b6000611db885828601611cb1565b9250506020611dc985828601611cb1565b9150509250929050565b600080600060608486031215611de857600080fd5b6000611df686828701611cb1565b9350506020611e0786828701611cb1565b9250506040611e1886828701611d59565b9150509250925092565b60008060008060808587031215611e3857600080fd5b6000611e4687828801611cb1565b9450506020611e5787828801611cb1565b9350506040611e6887828801611d59565b925050606085013567ffffffffffffffff811115611e8557600080fd5b611e9187828801611d05565b91505092959194509250565b60008060408385031215611eb057600080fd5b6000611ebe85828601611cb1565b9250506020611ecf85828601611cc6565b9150509250929050565b60008060408385031215611eec57600080fd5b6000611efa85828601611cb1565b925050602083013567ffffffffffffffff811115611f1757600080fd5b611f2385828601611d2f565b9150509250929050565b60008060408385031215611f4057600080fd5b6000611f4e85828601611cb1565b9250506020611f5f85828601611d59565b9150509250929050565b600060208284031215611f7b57600080fd5b6000611f8984828501611cdb565b91505092915050565b600060208284031215611fa457600080fd5b6000611fb284828501611cf0565b91505092915050565b600060208284031215611fcd57600080fd5b6000611fdb84828501611d59565b91505092915050565b611fed81612bfa565b82525050565b611ffc81612c0c565b82525050565b600061200d82612afc565b6120178185612b12565b9350612027818560208601612c7d565b61203081612e18565b840191505092915050565b600061204682612b07565b6120508185612b23565b9350612060818560208601612c7d565b61206981612e18565b840191505092915050565b600061207f82612b07565b6120898185612b34565b9350612099818560208601612c7d565b80840191505092915050565b60006120b2603283612b23565b91507f4552433732313a207472616e7366657220746f206e6f6e20455243373231526560008301527f63656976657220696d706c656d656e74657200000000000000000000000000006020830152604082019050919050565b6000612118602683612b23565b91507f4f776e61626c653a206e6577206f776e657220697320746865207a65726f206160008301527f64647265737300000000000000000000000000000000000000000000000000006020830152604082019050919050565b600061217e601c83612b23565b91507f4552433732313a20746f6b656e20616c7265616479206d696e746564000000006000830152602082019050919050565b60006121be602483612b23565b91507f4552433732313a207472616e7366657220746f20746865207a65726f2061646460008301527f72657373000000000000000000000000000000000000000000000000000000006020830152604082019050919050565b6000612224601983612b23565b91507f4552433732313a20617070726f766520746f2063616c6c6572000000000000006000830152602082019050919050565b6000612264602c83612b23565b91507f4552433732313a206f70657261746f7220717565727920666f72206e6f6e657860008301527f697374656e7420746f6b656e00000000000000000000000000000000000000006020830152604082019050919050565b60006122ca603883612b23565b91507f4552433732313a20617070726f76652063616c6c6572206973206e6f74206f7760008301527f6e6572206e6f7220617070726f76656420666f7220616c6c00000000000000006020830152604082019050919050565b6000612330602a83612b23565b91507f4552433732313a2062616c616e636520717565727920666f7220746865207a6560008301527f726f2061646472657373000000000000000000000000000000000000000000006020830152604082019050919050565b6000612396602983612b23565b91507f4552433732313a206f776e657220717565727920666f72206e6f6e657869737460008301527f656e7420746f6b656e00000000000000000000000000000000000000000000006020830152604082019050919050565b60006123fc602e83612b23565b91507f45524337323155524953746f726167653a2055524920736574206f66206e6f6e60008301527f6578697374656e7420746f6b656e0000000000000000000000000000000000006020830152604082019050919050565b6000612462602083612b23565b91507f4552433732313a206d696e7420746f20746865207a65726f20616464726573736000830152602082019050919050565b60006124a2603183612b23565b91507f45524337323155524953746f726167653a2055524920717565727920666f722060008301527f6e6f6e6578697374656e7420746f6b656e0000000000000000000000000000006020830152604082019050919050565b6000612508602c83612b23565b91507f4552433732313a20617070726f76656420717565727920666f72206e6f6e657860008301527f697374656e7420746f6b656e00000000000000000000000000000000000000006020830152604082019050919050565b600061256e602083612b23565b91507f4f776e61626c653a2063616c6c6572206973206e6f7420746865206f776e65726000830152602082019050919050565b60006125ae602983612b23565b91507f4552433732313a207472616e73666572206f6620746f6b656e2074686174206960008301527f73206e6f74206f776e00000000000000000000000000000000000000000000006020830152604082019050919050565b6000612614602f83612b23565b91507f4552433732314d657461646174613a2055524920717565727920666f72206e6f60008301527f6e6578697374656e7420746f6b656e00000000000000000000000000000000006020830152604082019050919050565b600061267a602183612b23565b91507f4552433732313a20617070726f76616c20746f2063757272656e74206f776e6560008301527f72000000000000000000000000000000000000000000000000000000000000006020830152604082019050919050565b60006126e0603183612b23565b91507f4552433732313a207472616e736665722063616c6c6572206973206e6f74206f60008301527f776e6572206e6f7220617070726f7665640000000000000000000000000000006020830152604082019050919050565b61274281612c64565b82525050565b60006127548285612074565b91506127608284612074565b91508190509392505050565b60006020820190506127816000830184611fe4565b92915050565b600060808201905061279c6000830187611fe4565b6127a96020830186611fe4565b6127b66040830185612739565b81810360608301526127c88184612002565b905095945050505050565b60006020820190506127e86000830184611ff3565b92915050565b60006020820190508181036000830152612808818461203b565b905092915050565b60006020820190508181036000830152612829816120a5565b9050919050565b600060208201905081810360008301526128498161210b565b9050919050565b6000602082019050818103600083015261286981612171565b9050919050565b60006020820190508181036000830152612889816121b1565b9050919050565b600060208201905081810360008301526128a981612217565b9050919050565b600060208201905081810360008301526128c981612257565b9050919050565b600060208201905081810360008301526128e9816122bd565b9050919050565b6000602082019050818103600083015261290981612323565b9050919050565b6000602082019050818103600083015261292981612389565b9050919050565b60006020820190508181036000830152612949816123ef565b9050919050565b6000602082019050818103600083015261296981612455565b9050919050565b6000602082019050818103600083015261298981612495565b9050919050565b600060208201905081810360008301526129a9816124fb565b9050919050565b600060208201905081810360008301526129c981612561565b9050919050565b600060208201905081810360008301526129e9816125a1565b9050919050565b60006020820190508181036000830152612a0981612607565b9050919050565b60006020820190508181036000830152612a298161266d565b9050919050565b60006020820190508181036000830152612a49816126d3565b9050919050565b6000602082019050612a656000830184612739565b92915050565b6000604051905081810181811067ffffffffffffffff82111715612a9257612a91612de9565b5b8060405250919050565b600067ffffffffffffffff821115612ab757612ab6612de9565b5b601f19601f8301169050602081019050919050565b600067ffffffffffffffff821115612ae757612ae6612de9565b5b601f19601f8301169050602081019050919050565b600081519050919050565b600081519050919050565b600082825260208201905092915050565b600082825260208201905092915050565b600081905092915050565b6000612b4a82612c64565b9150612b5583612c64565b9250827fffffffffffffffffffffffffffffffffffffffffffffffffffffffffffffffff03821115612b8a57612b89612d5c565b5b828201905092915050565b6000612ba082612c64565b9150612bab83612c64565b925082612bbb57612bba612d8b565b5b828204905092915050565b6000612bd182612c64565b9150612bdc83612c64565b925082821015612bef57612bee612d5c565b5b828203905092915050565b6000612c0582612c44565b9050919050565b60008115159050919050565b60007fffffffff0000000000000000000000000000000000000000000000000000000082169050919050565b600073ffffffffffffffffffffffffffffffffffffffff82169050919050565b6000819050919050565b82818337600083830152505050565b60005b83811015612c9b578082015181840152602081019050612c80565b83811115612caa576000848401525b50505050565b60006002820490506001821680612cc857607f821691505b60208210811415612cdc57612cdb612dba565b5b50919050565b6000612ced82612c64565b91507fffffffffffffffffffffffffffffffffffffffffffffffffffffffffffffffff821415612d2057612d1f612d5c565b5b600182019050919050565b6000612d3682612c64565b9150612d4183612c64565b925082612d5157612d50612d8b565b5b828206905092915050565b7f4e487b7100000000000000000000000000000000000000000000000000000000600052601160045260246000fd5b7f4e487b7100000000000000000000000000000000000000000000000000000000600052601260045260246000fd5b7f4e487b7100000000000000000000000000000000000000000000000000000000600052602260045260246000fd5b7f4e487b7100000000000000000000000000000000000000000000000000000000600052604160045260246000fd5b6000601f19601f8301169050919050565b612e3281612bfa565b8114612e3d57600080fd5b50565b612e4981612c0c565b8114612e5457600080fd5b50565b612e6081612c18565b8114612e6b57600080fd5b50565b612e7781612c64565b8114612e8257600080fd5b5056fea2646970667358221220501735ad57b86c33f61333b03844d27d8e21f0305263a2e0ef356ce6487f770b64736f6c63430008000033",
    "linkReferences": {},
    "deployedLinkReferences": {}
}